:020000040800F2
:1000000000500020A12A0008C1260008C5260008CB
:10001000C9260008CD260008D126000800000000EF
:10002000000000000000000000000000D5260008CD
:10003000D926000800000000DD260008E12600089F
:10004000E92A0008E92A0008E92A0008E92A000844
:10005000E92A0008E92A0008E92A0008E92A000834
:10006000E92A0008E92A0008E92A0008E92A000824
:10007000E92A0008E92A0008E92A0008E92A000814
:10008000E92A0008E92A0008E92A0008E92A000804
:10009000E92A0008E92A0008E92A0008E92A0008F4
:1000A000E92A0008E92A0008E92A0008E92A0008E4
:1000B000E92A0008E92A0008E5260008E92A0008DC
:1000C000E92A0008E92A0008E92A0008E92A0008C4
:1000D000E92A0008E92A0008E92A0008E92A0008B4
:1000E000E92A0008E92A0008E92A000800000000BF
:1000F0000000000000000000000000000000000000
:0C01000000000000000000005FF808F1A3
:10010C0010B5054C237833B9044B13B10448AFF345
:10011C0000800123237010BD3C040020000000006F
:10012C00142C000808B5034B1BB103490348AFF36B
:10013C00008008BD0000000040040020142C0008C2
:10014C004FF0FF0C1CEAD0521EBF1CEAD15392EAAE
:10015C000C0F93EA0C0F6FD01A4480EA010C40028A
:10016C0018BF5FEA41211ED04FF0006343EA5010E4
:10017C0043EA5111A0FB01310CF00040B1F5000F26
:10018C003EBF490041EAD3715B0040EA010062F1D5
:10019C007F02FD2A1DD8B3F1004F40EBC25008BFBF
:1001AC0020F00100704790F0000F0CF0004C08BFDD
:1001BC0049024CEA502040EA51207F3AC2BFD2F1AA
:1001CC00FF0340EAC250704740F400004FF00003B8
:1001DC00013A5DDC12F1190FDCBF00F000407047F2
:1001EC00C2F10002410021FA02F1C2F1200200FA30
:1001FC0002FC5FEA310040F1000053EA4C0308BFF7
:10020C0020EADC70704792F0000F00F0004C02BF47
:10021C00400010F4000F013AF9D040EA0C0093F0C2
:10022C00000F01F0004C02BF490011F4000F013B1C
:10023C00F9D041EA0C018FE70CEAD15392EA0C0F8A
:10024C0018BF93EA0C0F0AD030F0004C18BF31F0F5
:10025C00004CD8D180EA010000F00040704790F0CB
:10026C00000F17BF90F0004F084691F0000F91F06F
:10027C00004F14D092EA0C0F01D142020FD193EA35
:10028C000C0F03D14B0218BF084608D180EA0100BD
:10029C0000F0004040F0FE4040F40000704740F099
:1002AC00FE4040F44000704780F0004002E000BF88
:1002BC0081F0004142001FBF5FEA410392EA030F45
:1002CC007FEA226C7FEA236C6AD04FEA1262D2EB8F
:1002DC001363C1BFD218414048404140B8BF5B4294
:1002EC00192B88BF704710F0004F40F4000020F02D
:1002FC007F4018BF404211F0004F41F4000121F043
:10030C007F4118BF494292EA030F3FD0A2F101028C
:10031C0041FA03FC10EB0C00C3F1200301FA03F1CA
:10032C0000F0004302D5494260EB4000B0F5000FED
:10033C0013D3B0F1807F06D340084FEA310102F1AC
:10034C000102FE2A51D2B1F1004F40EBC25008BF5E
:10035C0020F0010040EA03007047490040EB000028
:10036C00013A28BFB0F5000FEDD2B0FA80FCACF129
:10037C00080CB2EB0C0200FA0CF0AABF00EBC25056
:10038C0052421843BCBFD0401843704792F0000F44
:10039C0081F4000106BF80F400000132013BB5E797
:1003AC004FEA41037FEA226C18BF7FEA236C21D00D
:1003BC0092EA030F04D092F0000F08BF0846704772
:1003CC0090EA010F1CBF0020704712F07F4F04D140
:1003DC00400028BF40F00040704712F100723CBF53
:1003EC0000F50000704700F0004343F0FE4040F47D
:1003FC00000070477FEA226216BF08467FEA23633B
:10040C000146420206BF5FEA412390EA010F40F425
:10041C00800070474FF0000304E000BF10F0004371
:10042C0048BF40425FEA000C08BF704743F0964358
:10043C0001464FF000001CE050EA010208BF704773
:10044C004FF000030AE000BF50EA010208BF7047FA
:10045C0011F0004302D5404261EB41015FEA010C0F
:10046C0002BF84460146002043F0B64308BFA3F107
:10047C008053A3F50003BCFA8CF2083AA3EBC253E9
:10048C0010DB01FA02FC634400FA02FCC2F1200208
:10049C00BCF1004F20FA02F243EB020008BF20F03F
:1004AC000100704702F1200201FA02FCC2F12002A5
:1004BC0050EA4C0021FA02F243EB020008BF20EA9A
:1004CC00DC7070474FF0FF3C06E000BF4FF0010CB2
:1004DC0002E000BF4FF0010C4DF804CD4FEA400292
:1004EC004FEA41037FEA226C18BF7FEA236C11D0DC
:1004FC0001B052EA530C18BF90EA010F58BFB2EB8F
:10050C00030088BFC81738BF6FEAE17018BF40F00E
:10051C00010070477FEA226C02D15FEA402C05D1C2
:10052C007FEA236CE4D15FEA412CE1D05DF8040B47
:10053C00704700BF844608466146FFE70FB5FFF7DA
:10054C00C9FF002848BF10F1000F0FBD4DF808ED92
:10055C00FFF7F4FF0CBF012000205DF808FB00BF83
:10056C004DF808EDFFF7EAFF34BF012000205DF8DD
:10057C0008FB00BF4DF808EDFFF7E0FF94BF01202A
:10058C0000205DF808FB00BF4DF808EDFFF7D2FF27
:10059C0094BF012000205DF808FB00BF4DF808ED6A
:1005AC00FFF7C8FF34BF012000205DF808FB00BF37
:1005BC0042000ED2B2F1FE4F0BD34FF09E03B3EBC1
:1005CC00126209D44FEA002343F0004323FA02F0ED
:1005DC0070474FF00000704712F1610F01D14202D9
:1005EC0002D14FF0FF3070474FF00000704700BF52
:1005FC0038B54FF47A730D4A054611780C4AB3FBA3
:10060C00F1F31268B2FBF3F000F06EFB08B90F2D9A
:10061C0001D9012038BD0446024629464FF0FF306F
:10062C0000F016FB034B20461D6038BD0000002077
:10063C000800002004000020074A08B513680320B6
:10064C0043F01003136000F0F1FA0F20FFF7D0FF16
:10065C0002F00EF8002008BD00200240034A044BB3
:10066C0011681B780B441360704700BF58040020BE
:10067C0000000020014B1868704700BF5804002090
:10068C00002800F0898038B5836A0446002B6BD0B3
:10069C0023689A68D10740D4A26AD2065ED4A26AB3
:1006AC006168E06922F48852257B22F00202014342
:1006BC0042F00202A26241EA4502A168B1F5807FD4
:1006CC0058D0207D01290CBF4FF4807C4FF0000CDA
:1006DC0001286DD0586820F4694040EA0C0058603D
:1006EC009D684448284010439860012950D0002050
:1006FC00D96A21F470010143D96299683E4B0B40D1
:10070C009A424BD00120A36A23F0120343F010034A
:10071C00A362E36A0343E36238BD9A6822F00102E4
:10072C009A60FFF7A7FF236805469A68D207B3D5EE
:10073C0002E09A68D107AFD5FFF79CFF401B022857
:10074C002368F6D99A68D007F3D5A36A43F010034F
:10075C00A362E36A43F00103E362A36AA36A012084
:10076C0043F01003A36238BDC36280F8243001F05B
:10077C009DFE8DE7207D012819D058681D4920F475
:10078C00694040F48070586098680140114399604A
:10079C00216901390805ABE7012070470020E062B0
:1007AC00A36A23F0030343F00103A36238BD8C4614
:1007BC00C5B1A06A40F02000A062E06A40F00100E0
:1007CC00E0625868B1F5807F20F4694040EA0C0083
:1007DC0058609D68074800EA050040EA02009860EE
:1007EC0083D1D5E7A06901384CEA403040F4006C65
:1007FC00E7E700BFFDF7E1FFFE0E1FFF2DE9F0411B
:10080C000546002482B00E460194FFF733FF2B6897
:10081C009A68D7056ED45A680746D1051AD4DA6A95
:10082C0012F4700F16D1721C6ED11A689407FCD595
:10083C006FF012021A60AA6A42F40072AA629B68F4
:10084C0003F46023B3F5602F00F08A80002002B01F
:10085C00BDE8F0814C4B0220D3F8008000F0C2FEC2
:10086C002A684A49146913460C42B8FBF0F010D1BF
:10087C00D46801F15C410C420BD1146944490C421F
:10088C007FD1D46801F16E410C4214BF2924142489
:10089C0009E014693E490C4222D1D46801F16E4141
:1008AC000C421DD1542400FB04F401998C42BFD995
:1008BC00711C32D036B138E0019B01330193019B9E
:1008CC00A34230D2019BA342F6D200220320AB6A92
:1008DC0085F8242043F00403AB6202B0BDE8F0813C
:1008EC0014692C490C4231D1D4680C4214BFFC243D
:1008FC005424D8E70120AB6A85F8244043F0200348
:10090C00AB6202B0BDE8F0811A68900790D4FEB9D2
:10091C001A6812F0020286D1D8E7019B01330193C9
:10092C00019B9C42F9D8134682E7FFF7A3FEC31B39
:10093C009E4202D2019B9C42C7D8019B013301937A
:10094C00019B9C42F1D82A68134671E7FC24AAE764
:10095C00FFF790FEC31BB3422B687FF664AFD7E75B
:10096C00287B00287FF472AFAB6A23F48073AB62F0
:10097C00AB6ADB043FF56AAFAB6A43F00103AB62D1
:10098C0065E729248FE700BF080000202449922442
:10099C0092244912499224000368D86C704700BF16
:1009AC00002330B583B0019390F82430012B74D020
:1009BC00012380F824304B680246062B046832D998
:1009CC000C2B03EB83034ED84FF01F0C0868256BE0
:1009DC00233B00FA03FE0CFA03F325EA030343EA74
:1009EC000E032363092830D94FF0070C8D6800EBF8
:1009FC004001E3681E398D400CFA01F123EA010332
:100A0C00A0F110012B430129E36044D82E4B9C42EA
:100A1C0038D00120936A43F020039362002382F8BC
:100A2C00243003B030BD4FF01F0C086803EB830378
:100A3C00656B053B00FA03FE0CFA03F325EA03038E
:100A4C0043EA0E0309286363CED807258968236916
:100A5C0000EB4000814005FA00F023EA00030B4351
:100A6C0000202361DAE74FF01F0C0868E56A413B70
:100A7C0000FA03FE0CFA03F325EA030343EA0E0320
:100A8C00E362AFE7A3681B0205D4A368102843F404
:100A9C000003A36004D00020C0E7022003B030BDE7
:100AAC000A4B0B491B68A1FB03139B0C03EB830341
:100ABC005B000193019B002BEDD0019B013B01934B
:100ACC00019B002BF9D1E6E700240140080000202F
:100ADC0083DE1B43806A7047002330B5026883B005
:100AEC0001939368D90727D41B4B04461B681B48FA
:100AFC009168A0FB030341F001019B0C91600193F1
:100B0C00019B2BB1019B013B0193019B002BF9D164
:100B1C00FFF7B0FD236805469B68DA070CD4FFF796
:100B2C00A9FD431B022B236803D99A6812F001021A
:100B3C0005D09B68DB07F2D5002003B030BD012047
:100B4C00A36A84F8242043F01003A362E36A0343EE
:100B5C00E36203B030BD00BF0800002083DE1B43FE
:100B6C0090F82430012B38D0012310B580F82430B4
:100B7C000446FFF7B1FF60BBA36A2268294923F43E
:100B8C00407323F0010343F480738A42A36226D09E
:100B9C00A36A23F48013A362536859052BD4A36A68
:100BAC00002113F4805318BFE36A84F8241018BF93
:100BBC0023F00603E3626FF002031360936803F4FF
:100BCC006023B3F5602F1DD0936843F480139360BA
:100BDC0010BD002384F8243010BD02207047124B46
:100BEC00596811F4702FD3D0A16A41F48011A1621D
:100BFC005B685B05D3D5A36A23F4405343F480535D
:100C0C00A362CCE7074B9A4204D0936843F4A00349
:100C1C00936010BDA3F580635B6813F4702FD3D180
:100C2C00F3E700BF00280140002401404FF6FF0C01
:100C3C0006490302CA6803F4E06302EA0C02134398
:100C4C0043F0BF6343F40033CB60704700ED00E02A
:100C5C001C4B00B5DB68C3F30223C3F1070EBEF1D6
:100C6C00040F03F1040C28BF4FF0040EBCF1060F67
:100C7C001BD94FF0FF3C033B0CFA03FC22EA0C029D
:100C8C004FF0FF3C0CFA0EFC21EA0C0199400028B5
:100C9C0041EA02010CDB090100F16040C9B200F528
:100CAC00614080F800135DF804FB00221346E7E76F
:100CBC00054B00F00F000901C9B2034419765DF829
:100CCC0004FB00BF00ED00E0FCEC00E0002807DBBB
:100CDC00012300F01F01034A40098B4042F82030E9
:100CEC00704700BF00E100E00138B0F1807F0FD207
:100CFC004FF0E0234FF0F00C0022072110B4054C0C
:100D0C00586184F823C010469A6110BC1961704771
:100D1C000120704700ED00E02DE9F04F0E6883B024
:100D2C00002E00F0B58000227A4F924613467A4D81
:100D3C00DFF8E88106E0013336FA03F402F104022D
:100D4C0000F0A68001249C4034EA060E04EA060C4E
:100D5C00F1D14E68122E00F29E80122E1AD8DFE8C6
:100D6C0006F0A7B9B5CE19191919191919191919A4
:100D7C00191919B1BC00DFF8A8E1764500F098808C
:100D8C000EF5702E764500F09380AEF5801E7645FC
:100D9C0000F08E80BCF1FF0F9CBF864693464FF04F
:100DAC000F0684BF00F1040EA2F1200BDEF8004008
:100DBC000AFA0BF906FA0BFB24EA0B0444EA0904C1
:100DCC00CEF800404C6814F0805F79D0D7F818E06A
:100DDC0003F003094EF0010EC7F818E0D7F818E03D
:100DEC004FEA89090EF0010ECDF804E0DDF804E0BD
:100DFC0023F0030E0EF1804E0EF5803EDEF808B0A7
:100E0C0006FA09F62BEA0606DFF818B1584513D096
:100E1C000BF5806B58456BD0DFF80CB1584560D0A2
:100E2C00DFF808B158450CBF4FF0030B4FF0040B23
:100E3C000BFA09F946EA0906CEF80860AE6814F414
:100E4C00801F14BF46EA0C0626EA0C06AE60EE685C
:100E5C0014F4001F14BF46EA0C0626EA0C06EE60DA
:100E6C006E6814F4003F14BF46EA0C0626EA0C0622
:100E7C006E6014F4803F2C681FD044EA0C042C6084
:100E8C000E68013336FA03F402F104027FF45AAF10
:100E9C0003B0BDE8F08F46450AD07FF66CAFDFF8A3
:100EAC0090E0764504D00EF5803E76457FF472AF27
:100EBC008E683EBB4FF0040A6CE724EA0C042C60ED
:100ECC000E6838E7CC6804F1040A63E7CC6804F1D7
:100EDC00080A5FE7D1F80CA05CE7CC6804F10C0AB7
:100EEC0058E74FF0020B0BFA09F946EA0906A3E79B
:100EFC004FF0010B0BFA09F946EA09069CE74FF093
:100F0C00000A47E7012E4FF0080A0CBF0461446148
:100F1C0040E700BF00100240000401400000221016
:100F2C0000001210000801400010014000140140A4
:100F3C000000311002B9090401617047002800F06B
:100F4C00B6812DE9F04103680446DD0782B035D542
:100F5C009A494A6802F00C02042A00F0EF804A68B1
:100F6C0002F00C02082A00F0E5806368B3F5803FBC
:100F7C0010D0002B00F00C81B3F5A02F00F0828173
:100F8C008E4B1A6822F480321A601A6822F480227E
:100F9C001A6004E0894A136843F480331360FFF746
:100FAC0069FB864E054605E0FFF764FB401B642891
:100FBC0000F2EA8033689A03F6D523689F0728D598
:100FCC007E4A516811F00C0F00F08D80516801F0D1
:100FDC000C01082900F083802369002B00F0188194
:100FEC000122774B754E1A60FFF744FB054605E06E
:100FFC00FFF740FB401B022800F2C68033689807BD
:10100C00F6D53368626923F0F80343EAC203336010
:10101C0023681A071FD45D0742D5684BDA69D000E4
:10102C007DD50025674E3368D90540F19D80E36876
:10103C00012B00F0FE80002B00F0CA80052B5F4BCB
:10104C001A6A00F02C8122F001021A621A6A22F04C
:10105C0004021A62F2E0A369002B4FD00122584B14
:10106C00564EC3F88024FFF705FB054605E0FFF755
:10107C0001FB401B022800F28780736A9B07F6D5A0
:10108C00514B524A1B68A2FB03235B0A019300BF1E
:10109C00019B5A1E0192002BF9D123685D07BCD429
:1010AC00E069C0B1454D6B6803F00C03082B00F0F0
:1010BC00D8800022424B02281A6600F0FA80FFF713
:1010CC00D9FA044604E0FFF7D5FA001B02285BD8D6
:1010DC002B689B01F7D4002002B0BDE8F081526868
:1010EC00D6033FF579AF354A1268950730D522699A
:1010FC00012A2DD0012002B0BDE8F081304A2F4EDC
:10110C00C2F88034FFF7B6FA054604E0FFF7B2FAEE
:10111C00401B022838D8736A9F07F7D4BDE7DA69F9
:10112C00012542F08052DA61DB6903F080530093B1
:10113C00009B77E74A68D0037FF517AF1F4A126808
:10114C0091037FF53BAF6268002A7FF437AFD1E79C
:10115C001A4960690A6822F0F80242EAC0020A6081
:10116C001A077FF558AF76E7336843F48073336022
:10117C00FFF780FA07463368DA053FF558AFFFF7FB
:10118C0079FAC01B6428F6D9032002B0BDE8F081BF
:10119C000A4D2B6823F480332B602B6823F48023B7
:1011AC002B60FFF767FA064604E0FFF763FA801B33
:1011BC006428E9D82B689B03F7D4FEE600100240A4
:1011CC00000042420070004008000020D34D621025
:1011DC00504E41F28838336A23F001033362336A8C
:1011EC0023F004033362FFF745FA074604E0FFF7E8
:1011FC0041FAC01B4045C7D8336A9807F7D4002D75
:10120C003FF44EAF434AD36923F08053D36147E791
:10121C00414A404E1360FFF72DFA054604E0FFF7F4
:10122C0029FA401B0228AFD833689907F7D42368F2
:10123C00EFE6384A136A43F001031362FFF71AFA18
:10124C0041F288380646334F04E0FFF713FA801B4F
:10125C00404599D83B6A9B07F7D5002D3FF420AF4A
:10126C00D0E701283FF438AF6B68226A03F4803171
:10127C0091427FF43FAF606A03F47013181A18BFE1
:10128C00012029E703F18043A3F53C331A6842F4AB
:10129C0080221A601A6842F480321A607FE642F0AB
:1012AC0004021A621A6A42F001021A62C6E70120AD
:1012BC007047FFF7DFF9064605E0FFF7DBF9801B07
:1012CC0002283FF661AF2B689901F6D4236AB3F577
:1012DC00803F05D16A68A16822F400320A436A6033
:1012EC0001200C4D616A6A680B4322F474120A499E
:1012FC0013436B600866FFF7BDF9044605E0FFF782
:10130C00B9F9001B02283FF63FAF2B689A01F6D5BE
:10131C00E1E600BF0010024000004242002800F04D
:10132C00A180564A2DE9F0411368044603F00703E7
:10133C008B420D460CD2136823F007030B4313604A
:10134C00136803F007038B4202D00120BDE8F08143
:10135C0023689E0714D5580704D549494A6842F4B6
:10136C00E0624A60190704D545494A6842F4605264
:10137C004A604349A0684A6822F0F00202434A607E
:10138C00DA0720D562683E4B012A1B686CD0022A12
:10139C0065D09E07D9D53A4E41F28838736823F050
:1013AC00030313437360FFF765F9074604E0FFF787
:1013BC0061F9C01B40455AD87368626803F00C038E
:1013CC00B3EB820FF3D12D4A136803F00703AB4242
:1013DC0009D9136823F007032B431360136803F038
:1013EC000703AB42B1D12368580706D52449E068FE
:1013FC004A6822F4E06202434A60190707D5204A82
:10140C002169536823F4605343EAC10353601C49B8
:10141C004A6802F00C03082B10D01A4B184A1A48D1
:10142C0052681A49C2F30312805C194AC340086817
:10143C001360FFF7DDF80020BDE8F0811548C2F31A
:10144C008343D203C35C14D50E484A6800FB03F3F4
:10145C001149C2F340428A5CB3FBF2F3DEE79F0111
:10146C0099D472E7012070479B0394D46DE7032055
:10147C006CE70A4A02FB03F3D0E700BF00200240EE
:10148C000010024000127A00542C000804000020C6
:10149C00080000202C2C00083C2C000800093D0002
:1014AC00044B054A5B680549C3F30223CB5C106807
:1014BC00D84070470010024008000020642C00083F
:1014CC00044B054A5B680549C3F3C223CB5C106827
:1014DC00D84070470010024008000020642C00081F
:1014EC002DE9F0410446006882B0C1072CD53A4B77
:1014FC00DA69D2003FD5394D00262B68DF0548D577
:10150C00354D2B6A13F4407311D0616801F44072AD
:10151C009A420DD0012700202B6A314A23F44071E6
:10152C00C2F84074C2F840042962D90744D46168F7
:10153C00294A136A23F440730B4313621EB1D36917
:10154C0023F08053D3612068830706D52249A36812
:10155C004A6822F440421A434A6010F0100007D047
:10156C0000201D4AE168536823F480030B43536049
:10157C0002B0BDE8F081DA69184D42F08052DA61B0
:10158C00DB69012603F080530193019B2B68DF0577
:10159C00B6D42B6843F480732B60FFF76BF80746C7
:1015AC002B68D805ACD4FFF765F8C31B642BF7D9AF
:1015BC00032002B0BDE8F081FFF75CF841F28838F7
:1015CC00074604E0FFF756F8C01B4045F0D82B6ADD
:1015DC009A07F7D5ABE700BF00100240007000403F
:1015EC0000004242022808B505D0102826D0012858
:1015FC000CD0002008BDFFF763FF284B5B68C3F3DA
:10160C00813301335B00B0FBF3F008BD40F20232D2
:10161C0022490B6A1A40B2F5817F2FD003F4407334
:10162C00B3F5007F2DD0B3F5407FE2D14FF22443C8
:10163C00086810F4003018BF184608BD174B5A68DC
:10164C00186810F08070D5D01548C2F38341D203CE
:10165C00405C1ED55B68134AC3F34043D25C124B0B
:10166C00B3FBF2F303FB00F00C4B5B685B02C1D4E1
:10167C000E4B4000A3FB0030400808BD4FF4004067
:10168C0008BD49F64043486A10F0020018BF1846DE
:10169C0008BD074B03FB00F0E6E700BF001002405B
:1016AC00402C0008502C000800127A00ABAAAAAA01
:1016BC0000093D00002866D010B590F83D30044676
:1016CC0003F0FF02002B45D0022322682F4984F837
:1016DC003D308A42136842D0B2F1804F11D0A1F54F
:1016EC0094318A420DD001F580618A4209D0A069FB
:1016FC0023F080030343E16813606368D162936253
:10170C0010E0A16823F0700320690B4323F44073AD
:10171C00A169034323F08003E0680B436168136005
:10172C00D06291620123536184F8463084F83E30D4
:10173C0084F83F3084F8403084F8413084F84230EB
:10174C0084F8433084F8443084F8453084F83D30D4
:10175C00002010BD80F83C2001F07CF8B4E7A068B4
:10176C0023F070032169034323F440730B43A169F5
:10177C0023F080030B431360E368D36263689362C6
:10178C0063691363CEE70120704700BF002C014052
:10179C0090F83D30012B1FD10222036880F83D20C8
:1017AC00DA680F4942F001028B42DA6009D0B3F1DA
:1017BC00804F06D00B4A934203D002F580629342CD
:1017CC0004D19A6802F00702062A07D01A68002092
:1017DC0042F001021A6070470120704700207047E8
:1017EC00002C014000040040704700BF002866D068
:1017FC0010B590F83D30044603F0FF02002B45D0A5
:10180C00022322682F4984F83D308A42136842D063
:10181C00B2F1804F11D0A1F594318A420DD001F56F
:10182C0080618A4209D0A06923F080030343E168F8
:10183C0013606368D162936210E0A16823F07003B7
:10184C0020690B4323F44073A169034323F0800305
:10185C00E0680B4361681360D062916201235361AD
:10186C0084F8463084F83E3084F83F3084F84030B9
:10187C0084F8413084F8423084F8433084F84430A2
:10188C0084F8453084F83D30002010BD80F83C20B1
:10189C00FFF7AAFFB4E7A06823F0700321690343A4
:1018AC0023F440730B43A16923F080030B431360B3
:1018BC00E368D3626368936263691363CEE70120C4
:1018CC00704700BF002C014041BB90F83E30012B0B
:1018DC0038D1022380F83E300122036801F01F0149
:1018EC00186A02FA01F120EA010010B418621A6AAF
:1018FC00214C1143A342196226D0B3F1804F27D05B
:10190C001E4A934224D002F58062934220D01A687A
:10191C00002042F0010210BC1A60704704291FD04D
:10192C0008290BD090F84130012B0BD104291BD086
:10193C0008291DD0022380F84130CDE790F84030C3
:10194C00012B15D0012070475A6C42F400425A64A6
:10195C009A6802F00702062AD9D1002010BC704701
:10196C0090F83F30012BEDD1022380F83F30B3E7E4
:10197C00022380F84030AFE7002C01400004004007
:10198C00034690F83C00012800F0C5800120F0B41B
:10199C0083F83C000C2A08D8DFE802F03B07070765
:1019AC0065070707920707070D00002283F83C2004
:1019BC000120F0BC70471A680E68106A146A20F493
:1019CC00005024F4805414625568D46924F4E6441D
:1019DC0044EA06248E6840EA0630684EB24200F0B3
:1019EC00B8805560D4614C680D6914641062D46978
:1019FC00002044F40064D461D46924F48064D4617C
:101A0C00D16941EA0521D161002283F83C20F0BC68
:101A1C0070471A680E68106A146A20F0020024F0ED
:101A2C00010414625568946924F0730434438E687D
:101A3C003043524EB24270D0556094614C680D697F
:101A4C00546310629469002044F008049461946912
:101A5C0024F004049461916929439161002283F874
:101A6C003C20F0BC70471A680E68106A146A20F0AB
:101A7C00200024F0100414625568946924F4E644A0
:101A8C0044EA06248E6840EA06103C4EB24251D01D
:101A9C00556094614C680D699463106294690020E0
:101AAC0044F400649461946924F4806494619169B1
:101ABC0041EA05219161002283F83C20F0BC70477B
:101ACC001A680E68106A146A20F4007024F480748A
:101ADC0014625568D46924F0730434438E6840EA68
:101AEC000620264EB2423AD05560D4614C680D693E
:101AFC00D4631062D469002044F00804D461D46922
:101B0C0024F00404D461D1692943D161002283F803
:101B1C003C20F0BC704702207047CE6820F00800D3
:101B2C00304325F44075D1E905673E4320F00400AD
:101B3C00354381E7CE6820F0800040EA061025F49A
:101B4C004065D1E905673E4320F0400045EA860533
:101B5C009EE74E6925F4804545EA861541E7CE6837
:101B6C0020F4006040EA062025F44055D1E90567D1
:101B7C003E4320F4806045EA0615B5E7002C014091
:101B8C0090F83C30012B75D002460223012030B472
:101B9C00146882F83C0082F83D30A36823F47F433C
:101BAC0023F07703A3600B68602B65D024D8402BFF
:101BBC007CD04BD9502B17D14868CD68216A236A49
:101BCC0021F00A010143002023F001032362A369E1
:101BDC0023F0F00343EA0513A3612162A36823F009
:101BEC00700343F05703A3600121002382F83D10DA
:101BFC0082F83C3030BC7047B3F5805F38D0B3F519
:101C0C00005F10D1D1E90153A0682B43CD6820F4BB
:101C1C007F4143EA05230B43A360A368002043F4F0
:101C2C008043A360E0E7702BDED1D1E90153A068BB
:101C3C002B43CD6820F47F4143EA05230B43A3607B
:101C4C00A368002043F07703A360CDE7202B02D0DC
:101C5C000AD9302BC8D1A168002021F070010B43A8
:101C6C0043F00703A360BFE733F01001BCD1F2E7E8
:101C7C000020B9E702207047236A4868CD68216AC2
:101C8C0023F0A00321F010012162A16943EA0013A3
:101C9C0021F4704141EA0531A1612362A36800205F
:101CAC0023F0700343F06703A3609DE74868CD6899
:101CBC00216A236A21F00A0123F001032362A3693C
:101CCC00014323F0F00343EA0513A3612162A368E7
:101CDC00002023F0700343F04703A36084E700BFA8
:101CEC00704700BF704700BF704700BF704700BF10
:101CFC00036810B51A690446910702D5DA68920791
:101D0C005FD41A69500702D5DA68510746D41A69AC
:101D1C00120702D5DA6810072ED41A69D20602D53A
:101D2C00DA68D00618D41A69D10702D5DA68D20756
:101D3C005DD41A69100602D5DA6811065FD41A69E7
:101D4C00520602D5DA68500661D41A69910602D59A
:101D5C00DA68920643D410BD6FF0100108221961A5
:101D6C002277DB69204613F4407F64D0FFF7BAFF7B
:101D7C00002223682277D6E76FF00801042219614C
:101D8C002277DB692046990752D1FFF7A9FF20463D
:101D9C00FFF7AAFF002223682277BEE76FF0040149
:101DAC000222196122779B69204613F4407F3CD1B3
:101DBC00FFF796FF2046FFF797FF00222368227754
:101DCC00A5E76FF002010122196102779B699B075D
:101DDC0025D0FFF787FF00222368227791E76FF069
:101DEC0020022046BDE810401A6100F05DB86FF08B
:101DFC00010220461A6100F061FD236899E76FF03B
:101E0C00800220461A6100F051F8236897E76FF0C2
:101E1C00400220461A61FFF769FF236895E7FFF738
:101E2C005FFF2046FFF760FFD5E7FFF75BFFC4E7D6
:101E3C00FFF758FFAEE7FFF753FF2046FFF754FFBD
:101E4C0096E700BF90F83C20012A27D003460220D9
:101E5C001A6830B483F83D0050680C68104D20F0BF
:101E6C0070002043AA429468506009D0B2F1804FB0
:101E7C0006D00C48824203D000F58060824204D127
:101E8C00496824F080040C4394600022012183F8FB
:101E9C003C2083F83D10104630BC70470220704740
:101EAC00002C014000040040704700BF704700BF89
:101EBC00002865D0F8B590F84130044603F0FF02D5
:101ECC00002B55D0D4E90227242120692368024332
:101EDC00606984F841100243D868A66920F4005068
:101EEC00D8601969274D21F4405139431961D968DB
:101EFC00AB4221F4B05121F00C0142EA0102DA604C
:101F0C005A6922F4407242EA06025A6135D0FFF750
:101F1C00C7FA626800EB8003920003EB8303B3FB08
:101F2C00F2F3642600254FF0200C17482168A0FB23
:101F3C000372520906FB12331B013233A0FB03035D
:101F4C00120102EB53138B600B69284623F4904368
:101F5C000B614B6923F02A034B61CB6843F40053AC
:101F6C00CB60656484F841C084F842C06563F8BDF9
:101F7C0080F8402000F02CFDA4E7FFF7A1FAC8E799
:101F8C0001207047003801401F85EB512DE9F843C3
:101F9C001D4690F84130202B6BD1884609B117466D
:101FAC0012B90120BDE8F88321234FF00009044643
:101FBC00C0F8449080F84130FEF75CFBA3680646FD
:101FCC00B3F5805FA784E78456D0E38C9BB2002BDB
:101FDC007BD02368691C1BD11A681206FCD5B8F19A
:101FEC00000F41D018F8012B5A60E28C013A92B2E2
:101FFC00E284E28C92B2002AECD1681C42D11A68BD
:10200C005106FCD5202384F841300020BDE8F8832C
:10201C001A681706E3D42DB1FEF72CFB801B854202
:10202C002368D7D203F10C0252E8002F22F4D072AD
:10203C0003F10C0040E800210029F3D103F1140254
:10204C0052E8002F22F0010203F1140040E80021B5
:10205C000029F3D1202384F8401084F8413084F80F
:10206C0042300320BDE8F88339F8022BC2F3080292
:10207C00BAE70220BDE8F8832369002BA5D1C1463D
:10208C009846A2E71A685206BCD42DB1FEF7F2FAB4
:10209C00831B9D422368B0D203F10C0252E8002F3F
:1020AC0022F4D07203F10C0040E800210029F3D196
:1020BC0003F1140252E8002F22F0010203F1140084
:1020CC0040E800210029F3D1C4E7236895E700BF5D
:1020DC002DE9F843012280213248FEF72BFF002224
:1020EC0010213048FEF726FF012210212D48FEF763
:1020FC0021FF002280212B48FEF71CFF01228021AA
:10210C002848FEF717FF002210212648FEF712FF81
:10211C004FF07C59244D254F224E254C05F58078E7
:10212C00002280213046FEF705FF2046FEF718FD01
:10213C0032212046FEF762FB2046FEF7CBFC8205DF
:10214C0000D4FEE72046FEF727FC80B2FEF762F9CA
:10215C0038602046FEF704FD32212046FEF74EFB88
:10216C002046FEF7B7FC830500D4FEE72046FEF7B9
:10217C0013FC80B2FEF752F93968FEF79BF849461A
:10218C00FDF7DEFFFEF714FA0346C3F38D0325F8C3
:10219C00023F012280213046FEF7CCFE4545BFD1DF
:1021AC00BDE8F883000801406204002064050020AB
:1021BC00700500203E4A10B502F1F40C32F8080B01
:1021CC001146034631F8024FA34238BF23468C45D3
:1021DC00F8D138490B8032F8021F884228BF0846D4
:1021EC009445F8D105223449344C0344C3F34F03CE
:1021FC0008803349638031F8020B02F1010C8342F1
:10220C000ED2088898420BD94888984208D98888F9
:10221C00984205D2C888984202D20889984238D38D
:10222C005FFA8CF2762AE6D12649B4F804E00A70FB
:10223C007622254931F8020D02F1FF3C98420ED26C
:10224C00488898420BD28888984208D2C88898420D
:10225C0005D90889984202D94889984215D85FFA5D
:10226C008CF2052AE6D1194B1A70BEF1680F04D90D
:10227C00174B63606E23238010BDE388192B0FD896
:10228C001423144A2380626010BD104BE2801A7034
:10229C00EBE70C491FFA82FE0A70A4F804E0C7E7CA
:1022AC007344C3F34F02DB2BD8BF2280E2DC10BD9A
:1022BC00640400206A0500206C0500205C040020EA
:1022CC006E040020680500205205002069050020DE
:1022DC00690073000F00190001234FF0FA0CAF22B4
:1022EC0000B585B08DF807300B0A8DF804C08DF859
:1022FC00052000F1FE0C8DF80A300022DBB24FF005
:10230C00FD0E63444FF0ED0C8DF80600C8B2184476
:10231C00FF2888BFC0B28DF809208DF80B108DF8FE
:10232C000C004FF47A730A2201A905488DF808E0D5
:10233C008DF80DC0FFF72AFE05B05DF804FB00BF59
:10234C00A406002001234FF0FA0CAF2200B585B093
:10235C008DF807300B0A8DF804C08DF8052000F1BC
:10236C00FF0C8DF80A300022DBB24FF0FE0E6344F6
:10237C004FF0ED0C8DF80600C8B21844FF2818BFBA
:10238C00C0B28DF809208DF80B108DF80C004FF4AD
:10239C007A730A2201A905488DF808E08DF80DC062
:1023AC00FFF7F4FD05B05DF804FB00BFA4060020A8
:1023BC004FF0000C00B5DDF804E082610160C0F85C
:1023CC0004C0C0F808C0C0F80CC0C0F814C0C36189
:1023DC00C0F820E05DF804FBF8B504460068FDF792
:1023EC0067FF6169A0600546FDF764FF164F06465E
:1023FC003946FEF7BFF828B9144F30463946FEF778
:10240C00C3F8F0B13E466761E1682846FDF750FF1E
:10241C00216AFDF795FEA16907462846FDF790FE57
:10242C0001463846FDF746FF0346E16930461E4635
:10243C00FDF786FE01463046FDF73CFFE560606027
:10244C00F8BD6661E0E700BF00401CC600401C46BA
:10245C0000234FF46021012230B51248124C85B094
:10246C00CDE9013304600093836003730375C1618C
:10247C0043600261FEF704F960B9052401250723C6
:10248C0069460848CDE900450293FEF789FA20B960
:10249C0005B030BD00F0EAF8EFE700F0E7F805B062
:1024AC0030BD00BF7005002000240140002330B572
:1024BC00154A016887B09142CDE90233CDE9043366
:1024CC0001D007B030BD2024032503F1804303F570
:1024DC0004339A690D4842F400729A619A6902A910
:1024EC0002F400720092009A9A6942F004029A6116
:1024FC009B69CDE9024503F004030193019BFEF7B0
:10250C000BFC07B030BD00BF0024014000080140A7
:10251C0030B5002487B0CDE90244CDE90444134B17
:10252C00134D9C69284644F020049C619C699021C1
:10253C0004F020040094009C9C69012244F00404E3
:10254C009C619B69012403F004030193019BFEF73A
:10255C00F1FC902201232846032502A9CDE904456C
:10256C00CDE90223FEF7D8FB07B030BD00100240C6
:10257C00000801400023D0B594B001264FF48037F9
:10258C00012102244FF48032CDE90F33CDE905331C
:10259C00CDE90733CDE901330C93049300930D93EC
:1025AC0003934FF4E0130AA8CDE90A670E91119436
:1025BC0012921393FEF7C2FC08B172B6FEE70F221B
:1025CC000223CDE9042300224FF4806308902146B6
:1025DC0004A8CDE90623FEF7A1FE08B172B6FEE70A
:1025EC004FF40043684600940293FEF779FF08B15C
:1025FC0072B6FEE714B0D0BD00B583B0FEF71CF880
:10260C00FFF7B8FFFFF784FFFFF722FF00F0E8F8B1
:10261C0000F0A6F900F068F800F0BEF90C48FFF7DE
:10262C00B7F800210B48FFF74FF9DFF82CC00B4B24
:10263C000B4A0C490C48CDF800C0FFF7B9FE7821C5
:10264C000120FFF749FE78210220FFF77BFEFEE711
:10265C0014060020CC0500200AD7233CBD37863554
:10266C00000040C000007042A005002072B6FEE7DA
:10267C000E4B82B09A690E4942F001029A619A6936
:10268C0002F001020092009ADA6942F08052DA619B
:10269C00DB6903F080530193019B4B6823F0E063EB
:1026AC0043F000734B6002B0704700BF0010024053
:1026BC0000000140FEE700BFFEE700BFFEE700BFE1
:1026CC00FEE700BFFEE700BF704700BF704700BFCA
:1026DC00704700BFFDF7C2BF0148FFF709BB00BF41
:1026EC0014060020704700BF40F2CF20002340F2B8
:1026FC00CF718022D0B5374C374E94B0C4E900600E
:10270C002046CDE90933CDE90D33CDE90F33CDE9C1
:10271C001133E160089302930C93A3602361A261CF
:10272C000B930393FEF7C6FF58BB4FF48053294815
:10273C0008A90893FFF724FA78BB2648FFF756F848
:10274C0040BB00220023234802A9CDE90223FFF756
:10275C0079FBE0B90022602696271E480CA9CDE92A
:10276C000C670E921092FFF70BF968B900231A4A06
:10277C002168CDE904339142CDE9063310D014B071
:10278C00D0BDFFF773FFD0E7FFF770FFEEE7FFF761
:10279C006DFFDFE7FFF76AFFD3E7FFF767FFCCE7D3
:1027AC0040260227022403F1804303F504339A697F
:1027BC000A4842F004029A619B6904A903F00403DD
:1027CC000193CDE90467019B0794FEF7A5FA14B0B9
:1027DC00D0BD00BFCC050020000400400008014023
:1027EC00002342F20F7110B580224724174886B09F
:1027FC00C0E90231CDE903330293009303610593E1
:10280C000193134B446082610360FEF753FF90B950
:10281C004FF480530D4802A90293FFF7B1F988B920
:10282C000022002369460948CDE90023FFF70AFB83
:10283C0020B906B010BDFFF719FFE9E7FFF716FF47
:10284C0006B010BDFFF712FFEAE700BF1406002028
:10285C000008004000B5164A036883B0934205D0C7
:10286C00144A93420FD003B05DF804FB124BDA69A3
:10287C0042F00202DA61DB6903F002030093009B71
:10288C0003B05DF804FB00220B4B1E20D96941F00C
:10289C000401D961DB69114603F004030193019B28
:1028AC00FEF7D6F91E2003B05DF804EBFEF70EBA66
:1028BC000004004000080040001002401D4B02685C
:1028CC009A4200D070471C4A10B513680133012B93
:1028DC0015DC1360194B1888FDF79CFD0146184850
:1028EC00FFF77AFD17490446FDF73AFE70B15A20FE
:1028FC00154B164A1A60164B1B68586310BD002303
:10290C001360FFF7E5FBFFF755FCE3E720461149A1
:10291C00FDF744FE40B920460F49FDF7CBFC0A4BAE
:10292C001860FDF745FEE6E7074B0C4AD2201A600B
:10293C00E1E700BF00080040C80500205C0400204F
:10294C00A0050020000070C2C40500200000B442A5
:10295C00CC050020000070420000164300005243DA
:10296C0000234FF4E1310C2210B50948094CC0E9A1
:10297C000113C0E90333C0E905230460C361FFF709
:10298C0097FA00B910BDBDE81040FFF76FBE00BF4D
:10299C005C0600200038014000234FF4E1310C228A
:1029AC0010B50948094CC0E90113C0E90333C0E96B
:1029BC0005230460C361FFF77BFA00B910BDBDE8C5
:1029CC001040FFF753BE00BFA40600200044004097
:1029DC00D0B500242B4A036888B09342CDE9044457
:1029EC00CDE9064404D0284A93422BD008B0D0BD80
:1029FC00264B4FF400769A69022742F480429A6182
:102A0C009A69234802F480420092009A9A6904A9B8
:102A1C0042F004029A619B69CDE9046703F0040358
:102A2C0001930323019A0793FEF776F94FF4806222
:102A3C000023174804A9CDE904230694FEF76CF98A
:102A4C0008B0D0BD114B0426DA69022742F40032DB
:102A5C00DA61DA690E4802F400320292029A9A693B
:102A6C0004A942F004029A619B69CDE9046703F062
:102A7C00040303930323039A0793FEF74DF90822EB
:102A8C00D6E700BF0038014000440040001002406F
:102A9C0000080140FFF726FE0B480C490C4A0023A6
:102AAC0002E0D458C4500433C4188C42F9D3094AF8
:102ABC00094C002301E013600432A242FBD300F066
:102ACC000FF8FFF799FD7047000000203C04002030
:102ADC007C2C00083C040020F0060020FEE70000DF
:102AEC0070B50D4E0D4D761BB61006D0002455F862
:102AFC00043B01349847A642F9D1094E094D00F028
:102B0C0083F8761BB61006D0002455F8043B01342C
:102B1C009847A642F9D170BD702C0008702C0008A3
:102B2C00782C0008702C0008024B13B1024800F0FE
:102B3C0005B8704700000000552B00080023014623
:102B4C001A46184600F01AB838B5084B084D5B1BEE
:102B5C009C1007D0043B1D44013C55F804399847A0
:102B6C00002CF9D1BDE8384000F054B87C2C00089A
:102B7C00782C0008704700BF704700BF2DE9F04764
:102B8C00DFF87CA00646DAF8000098460F4691461E
:102B9C00FFF7F0FF1B4B1B68D3F8484124B3656863
:102BAC001F2D26DC5EB96B1C0235DAF80000636061
:102BBC0044F82570FFF7E0FF0020BDE8F087012303
:102BCC0004EB8501C1F88890D4F88821AB401A43F6
:102BDC00022EC4F88821C1F80881E4D1D4F88C21E4
:102BEC001343C4F88C31DEE703F5A674C3F84841EF
:102BFC00D5E7DAF80000FFF7BFFF4FF0FF30DCE756
:102C0C00380400206C2C0008F8B500BFF8BC08BCD8
:102C1C009E467047F8B500BFF8BC08BC9E4670478E
:102C2C0002030405060708090A0B0C0D0E0F101001
:102C3C000102000002030405060708090A0B0C0D2B
:102C4C000E0F101001020000000000000000000038
:102C5C000102030406070809000000000102030436
:042C6C001000002034
:082C7000352B000831010008BA
:042C78000D01000842
:102C7C0001000000100000000024F400000000001F
:102C8C0000000000FC02002064030020CC030020A4
:102C9C000000000000000000000000000000000028
:102CAC000000000000000000000000000000000018
:102CBC000000000000000000000000000000000008
:102CCC0000000000000000000000000000000000F8
:102CDC0000000000000000000000000000000000E8
:102CEC0000000000000000000000000000000000D8
:102CFC0000000000000000000000000000000000C8
:102D0C0000000000000000000000000000000000B7
:102D1C0000000000000000000000000000000000A7
:102D2C000000000000000000010000000000000096
:102D3C000E33CDAB34126DE6ECDE05000B0000005B
:102D4C000000000000000000000000000000000077
:102D5C000000000000000000000000000000000067
:102D6C000000000000000000000000000000000057
:102D7C000000000000000000000000000000000047
:0C30AC000000000000000000EC06002006
:0400000508002AA124
:00000001FF
